{
  "_format": "hh-sol-artifact-1",
  "contractName": "Nft",
  "sourceName": "contracts/Nft.sol",
  "abi": [
    {
      "inputs": [],
      "stateMutability": "nonpayable",
      "type": "constructor"
    },
    {
      "anonymous": false,
      "inputs": [
        {
          "indexed": true,
          "internalType": "address",
          "name": "owner",
          "type": "address"
        },
        {
          "indexed": true,
          "internalType": "address",
          "name": "approved",
          "type": "address"
        },
        {
          "indexed": true,
          "internalType": "uint256",
          "name": "tokenId",
          "type": "uint256"
        }
      ],
      "name": "Approval",
      "type": "event"
    },
    {
      "anonymous": false,
      "inputs": [
        {
          "indexed": true,
          "internalType": "address",
          "name": "owner",
          "type": "address"
        },
        {
          "indexed": true,
          "internalType": "address",
          "name": "operator",
          "type": "address"
        },
        {
          "indexed": false,
          "internalType": "bool",
          "name": "approved",
          "type": "bool"
        }
      ],
      "name": "ApprovalForAll",
      "type": "event"
    },
    {
      "anonymous": false,
      "inputs": [
        {
          "indexed": true,
          "internalType": "address",
          "name": "previousOwner",
          "type": "address"
        },
        {
          "indexed": true,
          "internalType": "address",
          "name": "newOwner",
          "type": "address"
        }
      ],
      "name": "OwnershipTransferred",
      "type": "event"
    },
    {
      "anonymous": false,
      "inputs": [
        {
          "indexed": true,
          "internalType": "address",
          "name": "from",
          "type": "address"
        },
        {
          "indexed": true,
          "internalType": "address",
          "name": "to",
          "type": "address"
        },
        {
          "indexed": true,
          "internalType": "uint256",
          "name": "tokenId",
          "type": "uint256"
        }
      ],
      "name": "Transfer",
      "type": "event"
    },
    {
      "inputs": [
        {
          "internalType": "address",
          "name": "to",
          "type": "address"
        },
        {
          "internalType": "uint256",
          "name": "tokenId",
          "type": "uint256"
        }
      ],
      "name": "approve",
      "outputs": [],
      "stateMutability": "nonpayable",
      "type": "function"
    },
    {
      "inputs": [
        {
          "internalType": "address",
          "name": "owner",
          "type": "address"
        }
      ],
      "name": "balanceOf",
      "outputs": [
        {
          "internalType": "uint256",
          "name": "",
          "type": "uint256"
        }
      ],
      "stateMutability": "view",
      "type": "function"
    },
    {
      "inputs": [],
      "name": "getAlltoken",
      "outputs": [
        {
          "components": [
            {
              "internalType": "uint256",
              "name": "id",
              "type": "uint256"
            },
            {
              "internalType": "string",
              "name": "uri",
              "type": "string"
            },
            {
              "internalType": "string",
              "name": "space",
              "type": "string"
            }
          ],
          "internalType": "struct Nft.RenderToken[]",
          "name": "",
          "type": "tuple[]"
        }
      ],
      "stateMutability": "view",
      "type": "function"
    },
    {
      "inputs": [
        {
          "internalType": "uint256",
          "name": "tokenId",
          "type": "uint256"
        }
      ],
      "name": "getApproved",
      "outputs": [
        {
          "internalType": "address",
          "name": "",
          "type": "address"
        }
      ],
      "stateMutability": "view",
      "type": "function"
    },
    {
      "inputs": [
        {
          "internalType": "address",
          "name": "owner",
          "type": "address"
        },
        {
          "internalType": "address",
          "name": "operator",
          "type": "address"
        }
      ],
      "name": "isApprovedForAll",
      "outputs": [
        {
          "internalType": "bool",
          "name": "",
          "type": "bool"
        }
      ],
      "stateMutability": "view",
      "type": "function"
    },
    {
      "inputs": [
        {
          "internalType": "address",
          "name": "recipents",
          "type": "address"
        },
        {
          "internalType": "string",
          "name": "_uri",
          "type": "string"
        }
      ],
      "name": "mint",
      "outputs": [
        {
          "internalType": "uint256",
          "name": "",
          "type": "uint256"
        }
      ],
      "stateMutability": "nonpayable",
      "type": "function"
    },
    {
      "inputs": [],
      "name": "name",
      "outputs": [
        {
          "internalType": "string",
          "name": "",
          "type": "string"
        }
      ],
      "stateMutability": "view",
      "type": "function"
    },
    {
      "inputs": [],
      "name": "owner",
      "outputs": [
        {
          "internalType": "address",
          "name": "",
          "type": "address"
        }
      ],
      "stateMutability": "view",
      "type": "function"
    },
    {
      "inputs": [
        {
          "internalType": "uint256",
          "name": "tokenId",
          "type": "uint256"
        }
      ],
      "name": "ownerOf",
      "outputs": [
        {
          "internalType": "address",
          "name": "",
          "type": "address"
        }
      ],
      "stateMutability": "view",
      "type": "function"
    },
    {
      "inputs": [],
      "name": "renounceOwnership",
      "outputs": [],
      "stateMutability": "nonpayable",
      "type": "function"
    },
    {
      "inputs": [
        {
          "internalType": "address",
          "name": "from",
          "type": "address"
        },
        {
          "internalType": "address",
          "name": "to",
          "type": "address"
        },
        {
          "internalType": "uint256",
          "name": "tokenId",
          "type": "uint256"
        }
      ],
      "name": "safeTransferFrom",
      "outputs": [],
      "stateMutability": "nonpayable",
      "type": "function"
    },
    {
      "inputs": [
        {
          "internalType": "address",
          "name": "from",
          "type": "address"
        },
        {
          "internalType": "address",
          "name": "to",
          "type": "address"
        },
        {
          "internalType": "uint256",
          "name": "tokenId",
          "type": "uint256"
        },
        {
          "internalType": "bytes",
          "name": "data",
          "type": "bytes"
        }
      ],
      "name": "safeTransferFrom",
      "outputs": [],
      "stateMutability": "nonpayable",
      "type": "function"
    },
    {
      "inputs": [
        {
          "internalType": "address",
          "name": "operator",
          "type": "address"
        },
        {
          "internalType": "bool",
          "name": "approved",
          "type": "bool"
        }
      ],
      "name": "setApprovalForAll",
      "outputs": [],
      "stateMutability": "nonpayable",
      "type": "function"
    },
    {
      "inputs": [
        {
          "internalType": "bytes4",
          "name": "interfaceId",
          "type": "bytes4"
        }
      ],
      "name": "supportsInterface",
      "outputs": [
        {
          "internalType": "bool",
          "name": "",
          "type": "bool"
        }
      ],
      "stateMutability": "view",
      "type": "function"
    },
    {
      "inputs": [],
      "name": "symbol",
      "outputs": [
        {
          "internalType": "string",
          "name": "",
          "type": "string"
        }
      ],
      "stateMutability": "view",
      "type": "function"
    },
    {
      "inputs": [
        {
          "internalType": "uint256",
          "name": "tokenId",
          "type": "uint256"
        }
      ],
      "name": "tokenURI",
      "outputs": [
        {
          "internalType": "string",
          "name": "",
          "type": "string"
        }
      ],
      "stateMutability": "view",
      "type": "function"
    },
    {
      "inputs": [
        {
          "internalType": "address",
          "name": "from",
          "type": "address"
        },
        {
          "internalType": "address",
          "name": "to",
          "type": "address"
        },
        {
          "internalType": "uint256",
          "name": "tokenId",
          "type": "uint256"
        }
      ],
      "name": "transferFrom",
      "outputs": [],
      "stateMutability": "nonpayable",
      "type": "function"
    },
    {
      "inputs": [
        {
          "internalType": "address",
          "name": "newOwner",
          "type": "address"
        }
      ],
      "name": "transferOwnership",
      "outputs": [],
      "stateMutability": "nonpayable",
      "type": "function"
    }
  ],
  "bytecode": "0x60806040523480156200001157600080fd5b506040518060400160405280600381526020017f4e667400000000000000000000000000000000000000000000000000000000008152506040518060400160405280600381526020017f50494e0000000000000000000000000000000000000000000000000000000000815250816000908051906020019062000096929190620001a6565b508060019080519060200190620000af929190620001a6565b505050620000d2620000c6620000d860201b60201c565b620000e060201b60201c565b620002bb565b600033905090565b6000600660009054906101000a900473ffffffffffffffffffffffffffffffffffffffff16905081600660006101000a81548173ffffffffffffffffffffffffffffffffffffffff021916908373ffffffffffffffffffffffffffffffffffffffff1602179055508173ffffffffffffffffffffffffffffffffffffffff168173ffffffffffffffffffffffffffffffffffffffff167f8be0079c531659141344cd1fd0a4f28419497f9722a3daafe3b4186f6b6457e060405160405180910390a35050565b828054620001b49062000285565b90600052602060002090601f016020900481019282620001d8576000855562000224565b82601f10620001f357805160ff191683800117855562000224565b8280016001018555821562000224579182015b828111156200022357825182559160200191906001019062000206565b5b50905062000233919062000237565b5090565b5b808211156200025257600081600090555060010162000238565b5090565b7f4e487b7100000000000000000000000000000000000000000000000000000000600052602260045260246000fd5b600060028204905060018216806200029e57607f821691505b60208210811415620002b557620002b462000256565b5b50919050565b612ba880620002cb6000396000f3fe608060405234801561001057600080fd5b50600436106101165760003560e01c8063715018a6116100a2578063b88d4fde11610071578063b88d4fde146102cd578063c87b56dd146102e9578063d0def52114610319578063e985e9c514610349578063f2fde38b1461037957610116565b8063715018a61461026b5780638da5cb5b1461027557806395d89b4114610293578063a22cb465146102b157610116565b806323b872dd116100e957806323b872dd146101b557806328904431146101d157806342842e0e146101ef5780636352211e1461020b57806370a082311461023b57610116565b806301ffc9a71461011b57806306fdde031461014b578063081812fc14610169578063095ea7b314610199575b600080fd5b610135600480360381019061013091906119fd565b610395565b6040516101429190611a45565b60405180910390f35b610153610477565b6040516101609190611af9565b60405180910390f35b610183600480360381019061017e9190611b51565b610509565b6040516101909190611bbf565b60405180910390f35b6101b360048036038101906101ae9190611c06565b61054f565b005b6101cf60048036038101906101ca9190611c46565b610667565b005b6101d96106c7565b6040516101e69190611e0b565b60405180910390f35b61020960048036038101906102049190611c46565b6107e0565b005b61022560048036038101906102209190611b51565b610800565b6040516102329190611bbf565b60405180910390f35b61025560048036038101906102509190611e2d565b6108b2565b6040516102629190611e69565b60405180910390f35b61027361096a565b005b61027d61097e565b60405161028a9190611bbf565b60405180910390f35b61029b6109a8565b6040516102a89190611af9565b60405180910390f35b6102cb60048036038101906102c69190611eb0565b610a3a565b005b6102e760048036038101906102e29190612025565b610a50565b005b61030360048036038101906102fe9190611b51565b610ab2565b6040516103109190611af9565b60405180910390f35b610333600480360381019061032e9190612149565b610ba5565b6040516103409190611e69565b60405180910390f35b610363600480360381019061035e91906121a5565b610bdc565b6040516103709190611a45565b60405180910390f35b610393600480360381019061038e9190611e2d565b610c70565b005b60007f80ac58cd000000000000000000000000000000000000000000000000000000007bffffffffffffffffffffffffffffffffffffffffffffffffffffffff1916827bffffffffffffffffffffffffffffffffffffffffffffffffffffffff1916148061046057507f5b5e139f000000000000000000000000000000000000000000000000000000007bffffffffffffffffffffffffffffffffffffffffffffffffffffffff1916827bffffffffffffffffffffffffffffffffffffffffffffffffffffffff1916145b80610470575061046f82610cf4565b5b9050919050565b60606000805461048690612214565b80601f01602080910402602001604051908101604052809291908181526020018280546104b290612214565b80156104ff5780601f106104d4576101008083540402835291602001916104ff565b820191906000526020600020905b8154815290600101906020018083116104e257829003601f168201915b5050505050905090565b600061051482610d5e565b6004600083815260200190815260200160002060009054906101000a900473ffffffffffffffffffffffffffffffffffffffff169050919050565b600061055a82610800565b90508073ffffffffffffffffffffffffffffffffffffffff168373ffffffffffffffffffffffffffffffffffffffff1614156105cb576040517f08c379a00000000000000000000000000000000000000000000000000000000081526004016105c2906122b8565b60405180910390fd5b8073ffffffffffffffffffffffffffffffffffffffff166105ea610da9565b73ffffffffffffffffffffffffffffffffffffffff161480610619575061061881610613610da9565b610bdc565b5b610658576040517f08c379a000000000000000000000000000000000000000000000000000000000815260040161064f9061234a565b60405180910390fd5b6106628383610db1565b505050565b610678610672610da9565b82610e6a565b6106b7576040517f08c379a00000000000000000000000000000000000000000000000000000000081526004016106ae906123dc565b60405180910390fd5b6106c2838383610eff565b505050565b606060006106d56007611166565b905060008167ffffffffffffffff8111156106f3576106f2611efa565b5b60405190808252806020026020018201604052801561072c57816020015b6107196118cd565b8152602001906001900390816107115790505b50905060005b8281116107d75761074281611174565b156107c457600061075282610ab2565b905060405180606001604052808381526020018281526020016040518060400160405280600181526020017f20000000000000000000000000000000000000000000000000000000000000008152508152508383815181106107b7576107b66123fc565b5b6020026020010181905250505b80806107cf9061245a565b915050610732565b50809250505090565b6107fb83838360405180602001604052806000815250610a50565b505050565b6000806002600084815260200190815260200160002060009054906101000a900473ffffffffffffffffffffffffffffffffffffffff169050600073ffffffffffffffffffffffffffffffffffffffff168173ffffffffffffffffffffffffffffffffffffffff1614156108a9576040517f08c379a00000000000000000000000000000000000000000000000000000000081526004016108a0906124ef565b60405180910390fd5b80915050919050565b60008073ffffffffffffffffffffffffffffffffffffffff168273ffffffffffffffffffffffffffffffffffffffff161415610923576040517f08c379a000000000000000000000000000000000000000000000000000000000815260040161091a90612581565b60405180910390fd5b600360008373ffffffffffffffffffffffffffffffffffffffff1673ffffffffffffffffffffffffffffffffffffffff168152602001908152602001600020549050919050565b6109726111e0565b61097c600061125e565b565b6000600660009054906101000a900473ffffffffffffffffffffffffffffffffffffffff16905090565b6060600180546109b790612214565b80601f01602080910402602001604051908101604052809291908181526020018280546109e390612214565b8015610a305780601f10610a0557610100808354040283529160200191610a30565b820191906000526020600020905b815481529060010190602001808311610a1357829003601f168201915b5050505050905090565b610a4c610a45610da9565b8383611324565b5050565b610a61610a5b610da9565b83610e6a565b610aa0576040517f08c379a0000000000000000000000000000000000000000000000000000000008152600401610a97906123dc565b60405180910390fd5b610aac84848484611491565b50505050565b6060610abd82611174565b610afc576040517f08c379a0000000000000000000000000000000000000000000000000000000008152600401610af3906125ed565b60405180910390fd5b6000600860008481526020019081526020016000208054610b1c90612214565b80601f0160208091040260200160405190810160405280929190818152602001828054610b4890612214565b8015610b955780601f10610b6a57610100808354040283529160200191610b95565b820191906000526020600020905b815481529060010190602001808311610b7857829003601f168201915b5050505050905080915050919050565b600080610bb26007611166565b9050610bbe84826114ed565b610bc881846116c7565b610bd260076116f3565b8091505092915050565b6000600560008473ffffffffffffffffffffffffffffffffffffffff1673ffffffffffffffffffffffffffffffffffffffff16815260200190815260200160002060008373ffffffffffffffffffffffffffffffffffffffff1673ffffffffffffffffffffffffffffffffffffffff16815260200190815260200160002060009054906101000a900460ff16905092915050565b610c786111e0565b600073ffffffffffffffffffffffffffffffffffffffff168173ffffffffffffffffffffffffffffffffffffffff161415610ce8576040517f08c379a0000000000000000000000000000000000000000000000000000000008152600401610cdf9061267f565b60405180910390fd5b610cf18161125e565b50565b60007f01ffc9a7000000000000000000000000000000000000000000000000000000007bffffffffffffffffffffffffffffffffffffffffffffffffffffffff1916827bffffffffffffffffffffffffffffffffffffffffffffffffffffffff1916149050919050565b610d6781611174565b610da6576040517f08c379a0000000000000000000000000000000000000000000000000000000008152600401610d9d906124ef565b60405180910390fd5b50565b600033905090565b816004600083815260200190815260200160002060006101000a81548173ffffffffffffffffffffffffffffffffffffffff021916908373ffffffffffffffffffffffffffffffffffffffff160217905550808273ffffffffffffffffffffffffffffffffffffffff16610e2483610800565b73ffffffffffffffffffffffffffffffffffffffff167f8c5be1e5ebec7d5bd14f71427d1e84f3dd0314c0f7b2291e5b200ac8c7c3b92560405160405180910390a45050565b600080610e7683610800565b90508073ffffffffffffffffffffffffffffffffffffffff168473ffffffffffffffffffffffffffffffffffffffff161480610eb85750610eb78185610bdc565b5b80610ef657508373ffffffffffffffffffffffffffffffffffffffff16610ede84610509565b73ffffffffffffffffffffffffffffffffffffffff16145b91505092915050565b8273ffffffffffffffffffffffffffffffffffffffff16610f1f82610800565b73ffffffffffffffffffffffffffffffffffffffff1614610f75576040517f08c379a0000000000000000000000000000000000000000000000000000000008152600401610f6c90612711565b60405180910390fd5b600073ffffffffffffffffffffffffffffffffffffffff168273ffffffffffffffffffffffffffffffffffffffff161415610fe5576040517f08c379a0000000000000000000000000000000000000000000000000000000008152600401610fdc906127a3565b60405180910390fd5b610ff0838383611709565b610ffb600082610db1565b6001600360008573ffffffffffffffffffffffffffffffffffffffff1673ffffffffffffffffffffffffffffffffffffffff168152602001908152602001600020600082825461104b91906127c3565b925050819055506001600360008473ffffffffffffffffffffffffffffffffffffffff1673ffffffffffffffffffffffffffffffffffffffff16815260200190815260200160002060008282546110a291906127f7565b92505081905550816002600083815260200190815260200160002060006101000a81548173ffffffffffffffffffffffffffffffffffffffff021916908373ffffffffffffffffffffffffffffffffffffffff160217905550808273ffffffffffffffffffffffffffffffffffffffff168473ffffffffffffffffffffffffffffffffffffffff167fddf252ad1be2c89b69c2b068fc378daa952ba7f163c4a11628f55a4df523b3ef60405160405180910390a461116183838361170e565b505050565b600081600001549050919050565b60008073ffffffffffffffffffffffffffffffffffffffff166002600084815260200190815260200160002060009054906101000a900473ffffffffffffffffffffffffffffffffffffffff1673ffffffffffffffffffffffffffffffffffffffff1614159050919050565b6111e8610da9565b73ffffffffffffffffffffffffffffffffffffffff1661120661097e565b73ffffffffffffffffffffffffffffffffffffffff161461125c576040517f08c379a000000000000000000000000000000000000000000000000000000000815260040161125390612899565b60405180910390fd5b565b6000600660009054906101000a900473ffffffffffffffffffffffffffffffffffffffff16905081600660006101000a81548173ffffffffffffffffffffffffffffffffffffffff021916908373ffffffffffffffffffffffffffffffffffffffff1602179055508173ffffffffffffffffffffffffffffffffffffffff168173ffffffffffffffffffffffffffffffffffffffff167f8be0079c531659141344cd1fd0a4f28419497f9722a3daafe3b4186f6b6457e060405160405180910390a35050565b8173ffffffffffffffffffffffffffffffffffffffff168373ffffffffffffffffffffffffffffffffffffffff161415611393576040517f08c379a000000000000000000000000000000000000000000000000000000000815260040161138a90612905565b60405180910390fd5b80600560008573ffffffffffffffffffffffffffffffffffffffff1673ffffffffffffffffffffffffffffffffffffffff16815260200190815260200160002060008473ffffffffffffffffffffffffffffffffffffffff1673ffffffffffffffffffffffffffffffffffffffff16815260200190815260200160002060006101000a81548160ff0219169083151502179055508173ffffffffffffffffffffffffffffffffffffffff168373ffffffffffffffffffffffffffffffffffffffff167f17307eab39ab6107e8899845ad3d59bd9653f200f220920489ca2b5937696c31836040516114849190611a45565b60405180910390a3505050565b61149c848484610eff565b6114a884848484611713565b6114e7576040517f08c379a00000000000000000000000000000000000000000000000000000000081526004016114de90612997565b60405180910390fd5b50505050565b600073ffffffffffffffffffffffffffffffffffffffff168273ffffffffffffffffffffffffffffffffffffffff16141561155d576040517f08c379a000000000000000000000000000000000000000000000000000000000815260040161155490612a03565b60405180910390fd5b61156681611174565b156115a6576040517f08c379a000000000000000000000000000000000000000000000000000000000815260040161159d90612a6f565b60405180910390fd5b6115b260008383611709565b6001600360008473ffffffffffffffffffffffffffffffffffffffff1673ffffffffffffffffffffffffffffffffffffffff168152602001908152602001600020600082825461160291906127f7565b92505081905550816002600083815260200190815260200160002060006101000a81548173ffffffffffffffffffffffffffffffffffffffff021916908373ffffffffffffffffffffffffffffffffffffffff160217905550808273ffffffffffffffffffffffffffffffffffffffff16600073ffffffffffffffffffffffffffffffffffffffff167fddf252ad1be2c89b69c2b068fc378daa952ba7f163c4a11628f55a4df523b3ef60405160405180910390a46116c36000838361170e565b5050565b806008600084815260200190815260200160002090805190602001906116ee9291906118ee565b505050565b6001816000016000828254019250508190555050565b505050565b505050565b60006117348473ffffffffffffffffffffffffffffffffffffffff166118aa565b1561189d578373ffffffffffffffffffffffffffffffffffffffff1663150b7a0261175d610da9565b8786866040518563ffffffff1660e01b815260040161177f9493929190612ae4565b602060405180830381600087803b15801561179957600080fd5b505af19250505080156117ca57506040513d601f19601f820116820180604052508101906117c79190612b45565b60015b61184d573d80600081146117fa576040519150601f19603f3d011682016040523d82523d6000602084013e6117ff565b606091505b50600081511415611845576040517f08c379a000000000000000000000000000000000000000000000000000000000815260040161183c90612997565b60405180910390fd5b805181602001fd5b63150b7a0260e01b7bffffffffffffffffffffffffffffffffffffffffffffffffffffffff1916817bffffffffffffffffffffffffffffffffffffffffffffffffffffffff1916149150506118a2565b600190505b949350505050565b6000808273ffffffffffffffffffffffffffffffffffffffff163b119050919050565b60405180606001604052806000815260200160608152602001606081525090565b8280546118fa90612214565b90600052602060002090601f01602090048101928261191c5760008555611963565b82601f1061193557805160ff1916838001178555611963565b82800160010185558215611963579182015b82811115611962578251825591602001919060010190611947565b5b5090506119709190611974565b5090565b5b8082111561198d576000816000905550600101611975565b5090565b6000604051905090565b600080fd5b600080fd5b60007fffffffff0000000000000000000000000000000000000000000000000000000082169050919050565b6119da816119a5565b81146119e557600080fd5b50565b6000813590506119f7816119d1565b92915050565b600060208284031215611a1357611a1261199b565b5b6000611a21848285016119e8565b91505092915050565b60008115159050919050565b611a3f81611a2a565b82525050565b6000602082019050611a5a6000830184611a36565b92915050565b600081519050919050565b600082825260208201905092915050565b60005b83811015611a9a578082015181840152602081019050611a7f565b83811115611aa9576000848401525b50505050565b6000601f19601f8301169050919050565b6000611acb82611a60565b611ad58185611a6b565b9350611ae5818560208601611a7c565b611aee81611aaf565b840191505092915050565b60006020820190508181036000830152611b138184611ac0565b905092915050565b6000819050919050565b611b2e81611b1b565b8114611b3957600080fd5b50565b600081359050611b4b81611b25565b92915050565b600060208284031215611b6757611b6661199b565b5b6000611b7584828501611b3c565b91505092915050565b600073ffffffffffffffffffffffffffffffffffffffff82169050919050565b6000611ba982611b7e565b9050919050565b611bb981611b9e565b82525050565b6000602082019050611bd46000830184611bb0565b92915050565b611be381611b9e565b8114611bee57600080fd5b50565b600081359050611c0081611bda565b92915050565b60008060408385031215611c1d57611c1c61199b565b5b6000611c2b85828601611bf1565b9250506020611c3c85828601611b3c565b9150509250929050565b600080600060608486031215611c5f57611c5e61199b565b5b6000611c6d86828701611bf1565b9350506020611c7e86828701611bf1565b9250506040611c8f86828701611b3c565b9150509250925092565b600081519050919050565b600082825260208201905092915050565b6000819050602082019050919050565b611cce81611b1b565b82525050565b600082825260208201905092915050565b6000611cf082611a60565b611cfa8185611cd4565b9350611d0a818560208601611a7c565b611d1381611aaf565b840191505092915050565b6000606083016000830151611d366000860182611cc5565b5060208301518482036020860152611d4e8282611ce5565b91505060408301518482036040860152611d688282611ce5565b9150508091505092915050565b6000611d818383611d1e565b905092915050565b6000602082019050919050565b6000611da182611c99565b611dab8185611ca4565b935083602082028501611dbd85611cb5565b8060005b85811015611df95784840389528151611dda8582611d75565b9450611de583611d89565b925060208a01995050600181019050611dc1565b50829750879550505050505092915050565b60006020820190508181036000830152611e258184611d96565b905092915050565b600060208284031215611e4357611e4261199b565b5b6000611e5184828501611bf1565b91505092915050565b611e6381611b1b565b82525050565b6000602082019050611e7e6000830184611e5a565b92915050565b611e8d81611a2a565b8114611e9857600080fd5b50565b600081359050611eaa81611e84565b92915050565b60008060408385031215611ec757611ec661199b565b5b6000611ed585828601611bf1565b9250506020611ee685828601611e9b565b9150509250929050565b600080fd5b600080fd5b7f4e487b7100000000000000000000000000000000000000000000000000000000600052604160045260246000fd5b611f3282611aaf565b810181811067ffffffffffffffff82111715611f5157611f50611efa565b5b80604052505050565b6000611f64611991565b9050611f708282611f29565b919050565b600067ffffffffffffffff821115611f9057611f8f611efa565b5b611f9982611aaf565b9050602081019050919050565b82818337600083830152505050565b6000611fc8611fc384611f75565b611f5a565b905082815260208101848484011115611fe457611fe3611ef5565b5b611fef848285611fa6565b509392505050565b600082601f83011261200c5761200b611ef0565b5b813561201c848260208601611fb5565b91505092915050565b6000806000806080858703121561203f5761203e61199b565b5b600061204d87828801611bf1565b945050602061205e87828801611bf1565b935050604061206f87828801611b3c565b925050606085013567ffffffffffffffff8111156120905761208f6119a0565b5b61209c87828801611ff7565b91505092959194509250565b600067ffffffffffffffff8211156120c3576120c2611efa565b5b6120cc82611aaf565b9050602081019050919050565b60006120ec6120e7846120a8565b611f5a565b90508281526020810184848401111561210857612107611ef5565b5b612113848285611fa6565b509392505050565b600082601f8301126121305761212f611ef0565b5b81356121408482602086016120d9565b91505092915050565b600080604083850312156121605761215f61199b565b5b600061216e85828601611bf1565b925050602083013567ffffffffffffffff81111561218f5761218e6119a0565b5b61219b8582860161211b565b9150509250929050565b600080604083850312156121bc576121bb61199b565b5b60006121ca85828601611bf1565b92505060206121db85828601611bf1565b9150509250929050565b7f4e487b7100000000000000000000000000000000000000000000000000000000600052602260045260246000fd5b6000600282049050600182168061222c57607f821691505b602082108114156122405761223f6121e5565b5b50919050565b7f4552433732313a20617070726f76616c20746f2063757272656e74206f776e6560008201527f7200000000000000000000000000000000000000000000000000000000000000602082015250565b60006122a2602183611a6b565b91506122ad82612246565b604082019050919050565b600060208201905081810360008301526122d181612295565b9050919050565b7f4552433732313a20617070726f76652063616c6c6572206973206e6f7420746f60008201527f6b656e206f776e6572206e6f7220617070726f76656420666f7220616c6c0000602082015250565b6000612334603e83611a6b565b915061233f826122d8565b604082019050919050565b6000602082019050818103600083015261236381612327565b9050919050565b7f4552433732313a2063616c6c6572206973206e6f7420746f6b656e206f776e6560008201527f72206e6f7220617070726f766564000000000000000000000000000000000000602082015250565b60006123c6602e83611a6b565b91506123d18261236a565b604082019050919050565b600060208201905081810360008301526123f5816123b9565b9050919050565b7f4e487b7100000000000000000000000000000000000000000000000000000000600052603260045260246000fd5b7f4e487b7100000000000000000000000000000000000000000000000000000000600052601160045260246000fd5b600061246582611b1b565b91507fffffffffffffffffffffffffffffffffffffffffffffffffffffffffffffffff8214156124985761249761242b565b5b600182019050919050565b7f4552433732313a20696e76616c696420746f6b656e2049440000000000000000600082015250565b60006124d9601883611a6b565b91506124e4826124a3565b602082019050919050565b60006020820190508181036000830152612508816124cc565b9050919050565b7f4552433732313a2061646472657373207a65726f206973206e6f74206120766160008201527f6c6964206f776e65720000000000000000000000000000000000000000000000602082015250565b600061256b602983611a6b565b91506125768261250f565b604082019050919050565b6000602082019050818103600083015261259a8161255e565b9050919050565b7f555249206e6f74206578697374206f6e20746861742049440000000000000000600082015250565b60006125d7601883611a6b565b91506125e2826125a1565b602082019050919050565b60006020820190508181036000830152612606816125ca565b9050919050565b7f4f776e61626c653a206e6577206f776e657220697320746865207a65726f206160008201527f6464726573730000000000000000000000000000000000000000000000000000602082015250565b6000612669602683611a6b565b91506126748261260d565b604082019050919050565b600060208201905081810360008301526126988161265c565b9050919050565b7f4552433732313a207472616e736665722066726f6d20696e636f72726563742060008201527f6f776e6572000000000000000000000000000000000000000000000000000000602082015250565b60006126fb602583611a6b565b91506127068261269f565b604082019050919050565b6000602082019050818103600083015261272a816126ee565b9050919050565b7f4552433732313a207472616e7366657220746f20746865207a65726f2061646460008201527f7265737300000000000000000000000000000000000000000000000000000000602082015250565b600061278d602483611a6b565b915061279882612731565b604082019050919050565b600060208201905081810360008301526127bc81612780565b9050919050565b60006127ce82611b1b565b91506127d983611b1b565b9250828210156127ec576127eb61242b565b5b828203905092915050565b600061280282611b1b565b915061280d83611b1b565b9250827fffffffffffffffffffffffffffffffffffffffffffffffffffffffffffffffff038211156128425761284161242b565b5b828201905092915050565b7f4f776e61626c653a2063616c6c6572206973206e6f7420746865206f776e6572600082015250565b6000612883602083611a6b565b915061288e8261284d565b602082019050919050565b600060208201905081810360008301526128b281612876565b9050919050565b7f4552433732313a20617070726f766520746f2063616c6c657200000000000000600082015250565b60006128ef601983611a6b565b91506128fa826128b9565b602082019050919050565b6000602082019050818103600083015261291e816128e2565b9050919050565b7f4552433732313a207472616e7366657220746f206e6f6e20455243373231526560008201527f63656976657220696d706c656d656e7465720000000000000000000000000000602082015250565b6000612981603283611a6b565b915061298c82612925565b604082019050919050565b600060208201905081810360008301526129b081612974565b9050919050565b7f4552433732313a206d696e7420746f20746865207a65726f2061646472657373600082015250565b60006129ed602083611a6b565b91506129f8826129b7565b602082019050919050565b60006020820190508181036000830152612a1c816129e0565b9050919050565b7f4552433732313a20746f6b656e20616c7265616479206d696e74656400000000600082015250565b6000612a59601c83611a6b565b9150612a6482612a23565b602082019050919050565b60006020820190508181036000830152612a8881612a4c565b9050919050565b600081519050919050565b600082825260208201905092915050565b6000612ab682612a8f565b612ac08185612a9a565b9350612ad0818560208601611a7c565b612ad981611aaf565b840191505092915050565b6000608082019050612af96000830187611bb0565b612b066020830186611bb0565b612b136040830185611e5a565b8181036060830152612b258184612aab565b905095945050505050565b600081519050612b3f816119d1565b92915050565b600060208284031215612b5b57612b5a61199b565b5b6000612b6984828501612b30565b9150509291505056fea26469706673582212207491692e424467f7f8eda24a082ee0c5174c13cca88906a9ebe3035d86efb5b564736f6c63430008090033",
  "linkReferences": {},
  "deployedLinkReferences": {}
}